:020000040800F2
:10000000480A0020AD0100081B2D000895290008B2
:10001000192D00089F130008D32F000800000000CE
:100020000000000000000000000000006D2F00082C
:10003000D7130008000000001D2D00086F2F0008D6
:10004000C7010008C7010008C7010008C701000870
:10005000C7010008C7010008C7010008C701000860
:10006000C7010008C7010008C7010008C701000850
:10007000A1130008C7010008C7010008C701000854
:10008000C7010008C7010008C7010008C701000830
:10009000C7010008C7010008C7010008C701000820
:1000A000C7010008C7010008C7010008C701000810
:1000B000C7010008C7010008C7010008C701000800
:1000C000C7010008C7010008C7010008212D00086A
:1000D000C7010008C7010008C7010008C7010008E0
:1000E000C7010008C7010008C701000800F002F8B6
:1000F00000F04DF80AA090E8000C82448344AAF175
:100100000107DA4501D100F042F8AFF2090EBAE872
:100110000F0013F0010F18BFFB1A43F0010318473B
:100120002049000040490000103A24BF78C878C137
:10013000FAD8520724BF30C830C144BF04680C60ED
:10014000704700000023002400250026103A28BF35
:1001500078C1FBD8520728BF30C148BF0B60704739
:10016000662904F00B84642900F06880752900F08A
:100170006580002070471FB500F0D4FB040000200C
:10018000002104F0E5FBE0601FBD10B510BD00F0DC
:10019000C9FC1146FFF7EFFF03F066FE00F0E7FC35
:1001A00003B4FFF7F2FF03BC00F02AFD09488047C3
:1001B00009480047FEE7FEE7FEE7FEE7FEE7FEE749
:1001C000FEE7FEE7FEE7FEE704480549054A064B61
:1001D00070470000D12F0008ED00000848040020FF
:1001E000480A00204806002048060020B2F12003FB
:1001F0000AD5C2F1200320FA02F001FA03F321FA32
:1002000002F140EA0300704721FA03F04FF00001C9
:10021000704700000FB41CB5074B06AA7B44694623
:100220000090059800F065FB0020694600F074FB23
:100230001CBC5DF814FB0000F90600002DE9F0413C
:100240000646002410687529314616A510D0AFF374
:100250000080002802DA404213A507E031688A07CF
:1002600001D512A502E0490704D511A5012401E03A
:10027000AFF3008000210A2206F1240709E0B0FB59
:10028000F2FCB0FBF2F302FB1C003030785418464D
:10029000491C0028F3D123462A463046BDE8F041E8
:1002A00000F0B9B8000000002D0000002B00000095
:1002B000200000002DE9F0474FF0000A894604466F
:1002C000C0F820A02046E1688847002876D025287D
:1002D00006D0D4E901219047206A401C2062F1E752
:1002E000E168204600258847C4F81CA00646002780
:1002F000C4F818A02A2E09D0304602F08FFE38B379
:1003000004EB8708303EC8F8186019E059F8041B60
:10031000204604EB87029161E1688847012F064679
:1003200018D1E069002820DA25F020051DE0D8F872
:10033000180000EB800006EB40003038C8F81800C9
:100340002046E1688847064602F068FE0028EED1A4
:10035000012F0AD02E2E08D12046E16888477F1C45
:100360000646022F45F02005C4DBA069002803DA09
:10037000404245F00105A061E80701D025F01005D5
:10038000B6B1A6F14100192802D8203645F400651F
:100390004A463146204625604D46FFF7E1FE58B1FA
:1003A000012806D0ED1D25F0070000F1080989E7B6
:1003B00004E005F1040985E730468AE7206ABDE8D4
:1003C000F0874FF0000200B5134694469646203958
:1003D00022BFA0E80C50A0E80C50B1F12001BFF4FE
:1003E000F7AF090728BFA0E80C5048BF0CC05DF864
:1003F00004EB890028BF40F8042B08BF704748BFB2
:1004000020F8022B11F0804F18BF00F8012B704725
:100410007047704770472DE9F0470D469946924660
:10042000044600F124080168880604D5E06921F03B
:100430001001216000E00120A84201DD471B00E01F
:100440000027A1697A1902EB0900081AA061207837
:10045000C00602D42046AFF30080002608E0D4E9AD
:1004600001211AF806009047206A401C761C206281
:100470004E45F4DB2078C0060AD52046AFF3008055
:1004800006E0D4E9012130209047206A401C206218
:10049000381EA7F10107F4DC07E0D4E9012118F8C0
:1004A00005009047206A401C2062281EA5F1010526
:1004B000F3DC2046AFF300802078000602D502204E
:1004C000BDE8F0870120FBE770472DE9FF4F0C46A0
:1004D0001E464FF0FF378BB0D2E90001DDF8608097
:1004E0000A908A46C1F30A5505B93D4600210846DF
:1004F0004FF00000BAF1000F00F4400005DA00EB05
:1005000080004FF4400101EA50004FEA9059B9F1E0
:10051000010F00DDB9460A9850EA4A000ED044F6B1
:100520001050A5F2FF3545432F14B8F1000F1ED02F
:100530007542291E1EDDC9F100021CE0B8F1010F51
:100540004FF0000001D0302103E0F24305E02154D8
:10055000401CB042FBDB30460022002121540B99A5
:10056000C1F80880C1E900200FB0BDE8F08FBD1BC5
:100570006D1CDEE74A4600DA694206A800F05CFA24
:1005800006AB93E8070003AB83E8070050460A99DF
:1005900000F03DFB8DE80700A0F500501F380090EB
:1005A0000398002D0ADD42F21F014A460844002349
:1005B00003A90390684600F0A6FD09E0A0F50050ED
:1005C0004A461F38002303A90390684600F0B0FD97
:1005D0008DE807000004000C03D04FF0FF30410805
:1005E00000E01046B8F1000F03D00022009215463B
:1005F0001EE0751E05D400F099F9303262556D1E6B
:10060000F9D5B3460122084302D000227F1C04E042
:100610002078302801D100227F1E002A099784D03B
:100620001DE0112D07DA00F081F9303262556D1CA2
:1006300050EA0102F5D1084302D00098C8B10EE09B
:100640000021681E05E0235C625C63542254401E56
:10065000491C8142F7DBAB46A81B401E09900020D5
:1006600004F80B000B98099AC0F80880C0E9002B29
:100670007AE711264FF0000857E72DE9F04F88463A
:100680000446D21D22F0070191B0D1E90001CDE965
:100690000A0102F09FFC02460B98C00F01D02D20EA
:1006A00007E02068810701D52B2002E0202101EA24
:1006B000C000032A099001D0072A05DB0346414602
:1006C000204600F079F90BE12078800601D5E06939
:1006D00000E00620B8F1650F814606D0B8F1660F3C
:1006E00018D0B8F1670F70D131E00020B9F1110FC7
:1006F000009001DB112301E009F101030AAA01A91D
:100700000CA8FFF7E2FEDDE90C70002609F10105F7
:10071000834647E001204B4600904FF000470AAA6D
:1007200001A90CA8FFF7D1FEDDE90DB00C995D46DB
:10073000002610B909F101000D18B9EB050003D42A
:10074000C0F1FF3609F10105A5EB09002BE0B9F175
:10075000010F01DA4FF001090020B9F1110F0090EB
:10076000484601DD112300E003460AAA01A90CA8AE
:10077000FFF7ABFEDDE90C704D460026834620787E
:1007800000070AD4AB4500DA5D4601A8012D04DD5F
:10079000411911F8011C302907D04F4502DA17F131
:1007A000040F04DA012082460FE06D1EEEE7002FF1
:1007B00002DCED1B3E4403E0781CA84200DD7D1CFA
:1007C000B81B00F1010A4FF000472078000703D45E
:1007D000AA4501DB4FF0FF3A0021B7F1004F0DF1C0
:1007E00043088DF8431024D002202B23002F01DA78
:1007F0007F422D230A21021EA0F1010000DC5FB11F
:1008000097FBF1FC97FBF1F201FB1C7C17460CF106
:10081000300C08F801CDEEE7A8F101000370218843
:10082000090501D5452100E06521A0F1010800F886
:10083000011C09980FA9A1EB0807FF1D00B10120B9
:10084000411901EBEA70A1693844081A401EA06101
:100850002078C00602D42046AFF30080099828B162
:10086000D4E901219047206A401C20622078C0060C
:1008700022D52046AFF300801EE0002E04DBB345F6
:1008800002DD01A8805D00E03020D4E9012190471D
:10089000206A401C2062761CAAF101005FEA000A6F
:1008A0000AD100F03FF8C0680168405CD4E901213A
:1008B0009047206A401C2062281EA5F10105DCDC5F
:1008C00007E0D4E9012118F8010B9047206A401C89
:1008D0002062381EA7F10107F3DC2046AFF3008049
:1008E000032011B041E6000001694A1C026108784A
:1008F000704700B58FB0CDE9013100210591054960
:100900007944CDE9031011466846FFF7D3FC0FB0D8
:1009100000BD0000E5FFFFFF0A6802F8010B0A6056
:1009200070470000004870470804002030B5B0F15F
:100930000A024FEA900E71F100034EEA817EB0EB9D
:100940000E0061EB91014FEA101E4EEA017E10EBA2
:100950000E0041EB11114FEA102E4EEA016E10EB22
:100960000E0041EB11214FEA104E4EEA014E10EB02
:100970000E0041EB1141401841F100014FEAD00057
:1009800040EA41704FEAD10110EB80054FEA810443
:1009900044EA907444EB01046D1944EB0404521BC7
:1009A000A3414FF0000348BF0A3200D530BD401CC0
:1009B00041F1000130BD00002DE9F0411F46044621
:1009C00003260168072A01F4006004DB08B116A5BC
:1009D00005E016A503E008B115A500E015A521F076
:1009E00010002060A069C01EA0610FB1401EA06170
:1009F0002046AFF300804FB1D4E90121384690473B
:100A0000206A401C2062C01C206206E0206AFAE7CF
:100A1000D4E9012115F8010B9047761EF8D2204643
:100A2000AFF30080BDE8F0814E414E006E616E0074
:100A3000494E4600696E66002DE9F047814616462C
:100A40008AB0354878440DC88DE80D0032487844A6
:100A5000801C03AC0DC884E80D0041F69B300844AF
:100A6000372190FBF1F290FBF1F5A5F1800501FB38
:100A700012041B3C02D56442012000E00020DFF894
:100A800098A080460027FA44AAF1BE0A0EE0E007CB
:100A90000AD03246684607EB470101230AEB810181
:100AA00000F046FB8DE8070064107F1C002CEED19F
:100AB000194F7F44AE3F19E0E80715D007EB04104B
:100AC0000DF1180A90E80E008AE80E00C068F042A6
:100AD00001D1981908903246012306A903A800F015
:100AE00027FB03AB83E807006D10641C002DE3D1E6
:100AF0004FF0010332466946B8F1000F03A802D057
:100B000000F001FB01E000F013FBC9E90001C9F8A6
:100B100008200AB0BDE8F087E03F000000487047B9
:100B2000E80300207546FFF7F9FFAE460500694669
:100B3000534620F00700854618B020B5FFF744FB68
:100B4000BDE820404FF000064FF000074FF00008CE
:100B50004FF0000B21F00701AC46ACE8C009ACE84F
:100B6000C009ACE8C009ACE8C0098D46704710B5B3
:100B70000446AFF300802046BDE81040FFF710BBED
:100B80004FF0013C50F8042B51F8043B9A4221D11C
:100B9000A2EB0C03934313EACC1317D150F8042BA8
:100BA00051F8043B9A4215D1A2EB0C03934313EA8C
:100BB000CC130BD150F8042B51F8043B9A4209D1C5
:100BC000A2EB0C03934313EACC13DBD04FF00000ED
:100BD000704700BFD01A01BAB1FA81F101F01801D3
:100BE00022FA01F0CB40C1F12001DBB2C0B2C01A41
:100BF0002CFA01F3D11A914311EAC311E6D17047DF
:100C000001491820ABBEFEE72600020070475FEAEC
:100C1000400C08BF91F0000F4FEA8C234FEAC1222D
:100C200043EA51514FEA1C5018BF00F5F0404FEA1B
:100C3000300018BF41F000415FEA6C5C00F0298091
:100C4000BCF1FF3F08BF40F080407047130C06BF67
:100C500012044FF0100C4FF0000C130E04BF1202E0
:100C60000CF1080C130F04BF12010CF1040C930FCC
:100C700004BF92000CF1020CD30F04BF52000CF120
:100C8000010C11464FF00002A0F11F00A0EB0C0078
:100C9000704711F0004F08BF704731F000413FF43A
:100CA000D5AF0B0C06BF09044FF0100C4FF0000C31
:100CB0000B0E04BF09020CF1080C0B0F04BF090155
:100CC0000CF1040C8B0F04BF89000CF1020CCB0F4C
:100CD00004BF49000CF1010CCCF12003A0EB0C0087
:100CE00022FA03F302FA0CF241EA030100F10100D7
:100CF000704720F07F4C80EA030023F07F47ACEB85
:100D0000070303F57C5300F0004003F1FF032DE9D6
:100D100080494FEA154B09B44FEA144325EA0B4EBC
:100D200024EA03480FF2042606EB132749083E780D
:100D30005FEA320203FB0667C7F5000707FB06F60A
:100D40004FEA54374FEAD64606F1020607FB066C17
:100D5000CCF1005C4FEA1C472CEA074C07FB06F479
:100D60000CFB06F504EB15464FEA961634BF00203F
:100D70004FF000404FEAD13706FB07FC4FEA1C4C0E
:100D80000CFB0BF7D21B03FB0CF761EB07010CFB11
:100D90000EF7B0EB074072EB17420CFB08F734BFBD
:100DA000A2EB0742B2EB074261EB17414FEA0C445A
:100DB0004FEA910706FB07FC4FEA1C4C0CFB0BF7B4
:100DC000B0EBC74072EB573203FB0CF734BFA2EB1A
:100DD000C742B2EBC74261EB57310CFB0EF7B0EBE9
:100DE000C70072EB57720CFB08F734BFA2EBC702C7
:100DF000B2EBC70261EB5771039F4FEA816141EA91
:100E0000921104EBCC044FEAD1374FEA826206FB21
:100E100007FC42EA90124FEA80604FEA1C4C0CFB40
:100E20000BF7D21B03FB0CF761EB07010CFB0EF772
:100E3000B0EB074072EB17420CFB08F734BFA2EB94
:100E40000742B2EB074261EB17414FEA8C554FEA7C
:100E5000910704EB9C2406FB07FC4FEA1C4C0CFB9F
:100E60000BF7B0EBC74072EB573203FB0CF734BF04
:100E7000A2EBC742B2EBC74261EB57310CFB0EF756
:100E8000B0EBC70072EB57720CFB08F734BFA2EB54
:100E9000C702B2EBC70261EB577115EB4C254FEA65
:100EA000816141EA92114FEA82624FEAD13742EA08
:100EB000901206FB07FC44F100044FEA80604FEA01
:100EC0001C4C0CFB0BF7D21B03FB0CF761EB07016F
:100ED0000CFB0EF7B0EB074072EB17420CFB08F768
:100EE00034BFA2EB0742B2EB074261EB174115EBAF
:100EF0001C154FEA813141EA92414FEA823242EABF
:100F000090424FEA80304FEA0C7644F1000448EA00
:100F100003434EEA0B484FF0000EB2EB080C71EBA6
:100F2000030724BF624639464EEB0E0E4FF0000B0E
:100F30000018524149414BEB0B0BB2EB080C71EB23
:100F400003077BF1000B24BF624639464EEB0E0EC1
:100F50004FF0000B0018524149414BEB0B0BB2EB29
:100F6000080C71EB03077BF1000B24BF6246394686
:100F70004EEB0E0E51EA020718BF46F0010616EBC3
:100F80000E7655F1000254F1000103D5BDE8890148
:100F9000BDE80088BDE88901BDE80048B6195241A6
:100FA00041EB0101A3F10103704780807F7E7D7CCE
:100FB0007B7A7978777676757473727171706F6EEB
:100FC0006E6D6C6C6B6A6A69686867666665646496
:100FD000636362616160605F5F5E5E5D5D5C5C5B20
:100FE0005B5A5A595958585757565655555554548F
:100FF000535352525251515050504F4F4F4E4E4DED
:101000004D4D4C4C4C4B4B4B4A4A4A494949484838
:101010004847474747464646454545444444444378
:1010200043434342424242414141002B9C4630D41B
:1010300077002BD01CB54FEA370703B44FF01000F0
:101040004FF01001BAF1000F06D0BCF1000FDCBF69
:1010500040F0080040F008014FF000000FBCBDE870
:1010600010400BF1010BBBF1010F08BF5FEA17073E
:1010700022BF12F1010211F101014FF0004143F1D1
:10108000000300F0004043EA00007047F9D357081E
:10109000D0E746EA064613F1400F4FEA16461FDD39
:1010A00013F1200FDFBF16430A46002120335B42B5
:1010B000BED0C3F1200746EA064602FA07F74FEA18
:1010C000164646EA0706C3F1200722FA03F201FAA0
:1010D00007F721FA03F14FF0000342EA0702A7E7FE
:1010E00046EA020646EA06464FEA164646EA010680
:1010F000BCBF46EA0646360C4FF000034FF0000234
:101100004FF0000194E72DE9804C9A46934670B465
:1011100091E8380007C831EA400C48BF34EA430C74
:1011200003D5FFF7E6FDFFF780FFF0BCBDE8008CBC
:101130002DE9804C9A46934670B491E8380007C870
:1011400010F0804F08BF13F0804F03D100F005F876
:10115000FFF76BFFF0BCBDE8008C20F07F4780EA12
:10116000030023F07F4C07EB0C03A3F57C5300F046
:101170000040A3F1FE0392F0000F00F0B38095F061
:10118000000F00F077802DE901494FEA11404FEA46
:10119000144621EA004800FB06FC24EA064708FB47
:1011A00006F607FB08F800FB07F718EB06484CEBC0
:1011B000164C4FEA124B18EB07484FEA15464CEB1A
:1011C000174022EA0B4E0BFB06FC25EA06470EFBF6
:1011D00006F607FB0EFE0BFB07F71EEB064E4CEB6D
:1011E000164C4FF000061EEB074E4CEB174B18EB5E
:1011F0000B0840F1000018EB0E0B58EB000840F113
:1012000000008F1A4FF000013CBFC943661B14BF9A
:10121000B5EB040C00213CBFC943F61B4FEA174451
:101220004EEA8E0E27EA04454FEA1C4704FB07628C
:101230002CEA074C05FB07F70CFB05F604FB0CFC3E
:1012400016EB074642EB174216EB0C4642EB1C42EC
:101250001BEB060658EB0202414146EA9E0601D509
:10126000BDE80189B619524141EB0101A3F1010327
:10127000BDE801894FEA14454FEA114724EA0546C3
:1012800021EA074C05FB07F406FB07F70CFB06F108
:1012900005FB0CFC11EB074144EB17444FEA1247E6
:1012A00011EB0C4144EB1C4422EA074C05FB07F20E
:1012B00006FB07F70CFB06F605FB0CFC16EB0746D6
:1012C00042EB174216EB0C4642EB1C456A1854F1F0
:1012D000000148BF7047B619524141EB0101A3F12B
:1012E0000103704795F0000F37D04FEA11424FEAE3
:1012F000144721EA024624EA074C02FB07F106FBE9
:1013000007F70CFB06F402FB0CFC14EB074441EB63
:1013100017414FEA154714EB0C4441EB1C4125EAF9
:10132000074C02FB07F506FB07F70CFB06F602FB72
:101330000CFC16EB074645EB174516EB0C4645EB48
:101340001C42121951F1000148BF7047B6195241B1
:1013500041EB0101A3F1010370474FEA14454FEA45
:10136000114724EA054621EA074C05FB07F106FB75
:1013700007F70CFB06F24FF0000605FB0CFC12EB26
:10138000074241EB174112EB0C4251EB1C4148BFA5
:101390007047921841EB0101A3F101037047FEE78A
:1013A000014800F03FB900008403002030B590F8F8
:1013B00040500124AC40C56B6C60046863604368B6
:1013C000102B036803D099600068C26030BD9A603A
:1013D0000068C16030BD704772B6FEE70649002064
:1013E000C8610648016941F004010161016941F0E9
:1013F0004001016170470000C80300200020024046
:10140000064A0021D16106490A6942F002020A61D6
:101410004861086940F0400008617047C803002037
:1014200000200240044B0022DA61044A136943F0B1
:101430000103136101807047C803002000200240AF
:1014400014480022C168CB06134904D5CA6942F08A
:101450000202CA611022C3685B0705D5CB6943F05D
:101460000103CB6142F00402C369DB0707D0CB69FB
:1014700043F00403CB61C16921F00101C161A2F510
:101480008071013901D0C2607047C16921F001014A
:10149000C161704700200240C803002070B50546B6
:1014A00000F094FB0646114C09E0681C07D025B1FA
:1014B00000F08CFB801BA84201D9032070BDE068BE
:1014C000C007F2D1E068800601D52020E060E06826
:1014D000C00605D4E069C00702D1E068400703D523
:1014E000FFF7AEFF012070BD002070BD002002405C
:1014F0002DE9F843164688460546002400F058FAC0
:10150000284600F02BF8074605EB860000F026F889
:101510001149024600208F600860D01B012202EBB7
:101520009020C86069460C4800F09EF940B90DE073
:1015300058F8242000232946022000F0F9F918B1B8
:1015400000F0E6F9BDE8F883641C2D1DB442EFDB22
:1015500000F0E4F90020F5E7380000200A4B10B550
:1015600000215A0403EB8124844207D902EB812431
:10157000844203D8880200F1006010BD491C802914
:10158000F0DB002010BD00000004000810B590F84A
:1015900021100024022903D00421816301243DE0AD
:1015A00001680A6822F00E020A6001680A6822F0E7
:1015B00001020A601A4A0168914201D1012121E029
:1015C000174A1432914201D110211BE0144A2832EB
:1015D000914201D1891515E0114A3C32914201D165
:1015E00089140FE00E4A5032914202D14FF48031FB
:1015F00008E00B4A6432914202D14FF4801101E0BD
:101600004FF08071064A083A5160012180F821109C
:10161000002180F82010416B01B18847204610BDA1
:10162000080002402DE9F05FC16B0C6801680B688F
:10163000D0F840C0042202FA0CF2494DDFF824A190
:10164000494E4A4FDFF828B1DFF828E122422CD07A
:101650005A072AD50A68920603D40A6822F00402BF
:101660000A600168A94201D1042219E0514501D163
:10167000402215E0B14202D14FF4806210E0B9423D
:1016800002D14FF480420BE0594502D14FF4802241
:1016900006E0714502D14FF4800201E04FF0806214
:1016A0002F4908394A60C16A3BE04FF0020808FA46
:1016B0000CF818EA040F4FF000094FF0010235D082
:1016C0005FEA837832D50B689B0605D40B6823F05C
:1016D0000A030B6080F821200168A94201D102228F
:1016E00019E0514501D1202215E0B14202D14FF459
:1016F000007210E0B94202D14FF400520BE059459C
:1017000002D14FF4003206E0714502D14FF40012CD
:1017100001E04FF00072124908394A6080F82090C9
:10172000816A00291AD0BDE8F05F0847082505FA4C
:101730000CF5254212D01B0710D50B6823F00E03C1
:101740000B6090F84010C36B02FA01F1596082639C
:1017500080F8212080F82090016BE2E7BDE8F09F3F
:10176000080002401C0002403000024044000240D9
:10177000580002406C00024030B528B308C8134935
:1017800014221944B1FBF2F18900C163104981634D
:10179000022141771A6843F6F0718A43D0E90014B8
:1017A0002143D0E902452C43214304692143446984
:1017B00021438469214311431960002141630122BF
:1017C00042770177084630BD012030BDF8FFFDBFEC
:1017D0000000024070B5044690F820000025012862
:1017E0000CD0012084F8200094F821600020012E04
:1017F00006D084F820000225284670BD022070BD66
:10180000022684F82160A0632068066826F001069D
:1018100006602046FFF7CAFDE06A002820680168DC
:1018200002D041F00E0106E021F0040101602068C1
:10183000016841F00A0101602068016841F001017E
:101840000160D9E770B5044600F0C0F90546601C98
:1018500002D004480078044400F0B8F9401BA042CC
:10186000FAD370BD280000202DE9F0470546264830
:101870000F460126017E01290FD001218146017604
:101880002868DFF888804CF25034022808D0A2463D
:101890002046FFF703FEA8B131E00220BDE8F08743
:1018A0002046FFF7FBFD08BB0120FFF797FD204610
:1018B000FFF7F4FDD8F81010064621F00401C8F82F
:1018C00010101CE04FF0FF303860AC6811E020468B
:1018D000FFF796FD5046FFF7E1FDD8F8101006001F
:1018E00021F00201C8F8101001D03C6007E004F5B7
:1018F0008064D5E9020100EB8120A042E7D80021F5
:1019000089F818103046C9E7C803002000200240BB
:101910000148C06970470000C803002003480169FE
:1019200041F080010161002070470000002002406A
:101930002DE9F05F07461C4888460024017E1546C5
:101940001E46012909D00121814601764CF2503A08
:101950005046FFF7A3FD18B122E00220BDE8F09F3A
:10196000012F02D0022F00D00427D346DFF83CA07D
:10197000220128463146FEF739FC81B208EB4400CB
:10198000FFF750FD5846FFF789FDDAF8102022F0E6
:101990000102CAF8102018B9641CE4B2BC42E7D3B3
:1019A000002289F81820D9E7C8030020002002404F
:1019B000064900200A69120607D5054A4A60054A09
:1019C0004A600969090600D50120704700200240DD
:1019D00023016745AB89EFCD2DE9F84FDFF8B891CA
:1019E0000024A9F1040B23460F2709F1040AABF1E7
:1019F000040EC9E00125A5402A40AA427DD1674EC8
:101A0000D1F804C0ACEB0608B44532D014DCBCF10C
:101A1000030F3AD009DCBCF1000F2AD0BCF1010F52
:101A20001CD0BCF1020F31D11DE0BCF1110F17D059
:101A3000BCF1120F2AD119E0B8F5881F19D006DCC5
:101A4000B8F5803F15D0B8F5801F1FD111E0B8F56B
:101A5000001F0ED0B8F5041F18D10AE0CB6815E0BE
:101A6000CB681B1D12E0CB6808330FE0CB680C334A
:101A70000CE08B682BB1012B4FF0080303D04561BC
:101A800004E0042302E0056100E00023FF2A01D8FE
:101A9000064601E000F104064FEA840501D9A5F1EC
:101AA0002005D6F8008007FA05FC28EA0C0803FA9E
:101AB00005F548EA0508C6F800804D68ED0062D5D6
:101AC000374DAE6946F00106AE61AD6924F00306FC
:101AD00005F001050095334D06EB050CDCF80850C8
:101AE000A607360F07FA06F825EA0805DFF8B880DA
:101AF000404503D14FF0000817E044E0DFF8AC8028
:101B0000404502D14FF001080FE0DFF8A4804045C6
:101B100002D14FF0020808E0DFF89880404502D17A
:101B20004FF0030801E04FF0040808FA06F848EA0D
:101B30000508CCF808804D68D9F80060ED024D46E4
:101B400001D5164300E096432E604D68DAF8006038
:101B5000AD02554601D5164300E096432E604D6810
:101B6000DBF80060AD035D4601D5164300E0964307
:101B70002E604D68DEF80060ED03754601D5164312
:101B800000E096432E60641C0D682A46E5407FF411
:101B900031AFBDE8F88F00000804014000001110CB
:101BA000001002400000014000080140000C01400C
:101BB00000100140001401408068084000D001205E
:101BC00070470AB1016170470904FBE7014880686A
:101BD000704700002800002070B5040025D094F85C
:101BE0003D00002520B984F83C50204600F04EF915
:101BF000242084F83D002068016821F00101016083
:101C00002068016841F4004101602068016821F406
:101C10000041016000F0A0FA4D4A6168914201D88C
:101C20004C4900E04C49884201D2012070BD4B492B
:101C30002368B0FBF1F15E6826F03F060E435E605C
:101C40006368934206D94FF4967359434FF47A73FD
:101C5000B1FBF3F12368491C1E6A26F03F063143AD
:101C600019626168914210D84900401EB0FBF1F240
:101C7000521CC2F30B02042A01D2042022E0B0FB62
:101C8000F1F0401CC0F30B001CE0A268F2B301EBC2
:101C9000C10303EB0116431EB3FBF6F35B1C43F4D5
:101CA00080431B0549D092B301EBC10202EB011145
:101CB000401EB0FBF1F0401CC0F30B0040F480402C
:101CC00040F400402168CA694CF6FF739A43104300
:101CD000C861D4E9071001432068026822F0C002FD
:101CE00011430160D4E9030101432068826848F28E
:101CF000FF339A4311438160D4E905010843216809
:101D0000CA6822F0FF021043C86001E00EE016E04E
:101D10002068016841F0010101602564202084F8F9
:101D20003D00256384F83E50002070BD01EB410664
:101D3000431EB3FBF6F35B1CB3E70120C2E701EBE4
:101D40004101401EB0FBF1F0401CC0F30B00B7E7AF
:101D5000A086010080841E0000093D0040420F0063
:101D60002DE9F84F1F4690468A460446DDF8289034
:101D7000FFF72CFF054694F83D0020287FD119235A
:101D8000012240492046009500F096FE002876D1B9
:101D900094F83C00012872D0012084F83C002068AF
:101DA0000168C90703D1016841F0010101602068A1
:101DB000016821F400610160212084F83D001020B9
:101DC00084F83E0000262664C4F824806785608D70
:101DD00020852D48E0622B464A465146204600F0B9
:101DE000F1FD90B9206841698069009036E02A468B
:101DF0004946204600F006FF50B1206C042804D16B
:101E00002068016841F4007101600120BDE8F88F8D
:101E1000606A216800780861606A401C6062618DB8
:101E2000491E6185218D491E89B221852268536929
:101E3000DB435B070BD451B100781061606A401C32
:101E40006062608D401E6085208D401E20852A4680
:101E50004946204600F004FE0028CED1208D0028FF
:101E6000C5D154F83D0B016841F400710160202098
:101E700004F81E09E67766770020C7E7FFE702202F
:101E8000C4E70000020010000000FFFF10B586B09C
:101E90000021009101910291039100681349884249
:101EA00022D1134CA06940F00800A061A0696946E6
:101EB00000F0080004904FF4407000901220019050
:101EC000032003900B48FFF787FD0B48416841F062
:101ED000E06141F002014160E06940F40010E0611E
:101EE000E06900F40010049006B010BD00540040FA
:101EF00000100240000C01400000014002488168CF
:101F0000027811448160704728000020074810B50E
:101F1000016841F010010160032000F075F80F2006
:101F200000F006F800F024F8002010BD0020024068
:101F300070B50D4D04464FF47A712878B1FBF0F07E
:101F40000A490968B1FBF0F000F010FD48B9102C07
:101F500007D200222146501E00F036F800206C60A7
:101F600070BD012070BD000028000020340000205A
:101F70000C4808B5816941F001018161816901F076
:101F800001010091C16941F08051C161C06900F057
:101F9000805000900448416821F0E06141F00071F8
:101FA000416008BD0010024000000140002809DB2C
:101FB00000F01F02012191404009800000F1E02063
:101FC000C0F8001170470000F0B40E4B1B680C46BF
:101FD000C3F30223C3F10705042D00D90425191DFD
:101FE000072901D2002300E0DB1E012606FA05F1D5
:101FF000491E214099409E40761E16403143F0BC58
:1020000000F0FCBF0CED00E0064900F00702086894
:102010004FF6FF03184040EA0220034A10430860CD
:10202000704700000CED00E00000FA052DE9F047D4
:102030000F46050061D0434E306800F00700B842FB
:1020400009D2306820F0070038433060306800F073
:102050000700B84251D128683B4C810712D5400790
:1020600003D5606840F4E06060602878000703D51D
:10207000606840F4605060606068A96820F0F0001B
:10208000084360602878C00728D06868012810D00D
:102090002168022810D0890700292EDA616821F012
:1020A000030101436160FFF791FD804641F28839E9
:1020B0000DE021688903EFE78901EDE7FFF786FD71
:1020C000A0EB0801494502D90320BDE8F08760680C
:1020D000696800F00C00B0EB810FEFD1306800F0C0
:1020E0000700B8420BD9306820F007003843306051
:1020F000306800F00700B84201D00120E5E72878F9
:10210000400705D56068E96820F4E0600843606036
:102110002878000706D56068296920F4605040EAF5
:10212000C100606000F028F86168084AC1F303113B
:10213000515CC8400649086006480068FFF7F8FE91
:102140000020C2E70020024000100240924900082F
:10215000340000202C00002004480549006849682C
:10216000044AC1F30221515CC8407047340000208A
:1021700000100240A24900080E4A51680E4801F0C2
:102180000C03042B11D0082B0FD10C48C1F383434F
:10219000C903C05C0AD55168084AC1F34041921E88
:1021A000515C054A5043B0FBF1F070470449484385
:1021B000704700000010024000127A0082490008B7
:1021C00000093D002DE9F84F040070D02078C04D83
:1021D000C00749D06868C0F38100012807D068684B
:1021E000C0F38100022809D16868C00306D52868B9
:1021F000800339D560680028E7D035E06068B0F525
:10220000803F0BD010B1B0F5A02F11D0286820F47A
:1022100080302860286820F4802002E0286840F49C
:1022200080302860606890B1FFF7D0FC06460AE075
:10223000286840F480202860F0E700BFFFF7C6FC64
:10224000801B642873D828688003F7D50CE0FFF75B
:10225000BDFC064605E000BFFFF7B8FC801B642804
:10226000F0D828688003F7D420789A4E80074FF082
:1022700001094FF0000839D5686810F00C0F07D03D
:102280006868C0F38100022809D16868C00306D4D9
:102290002868800714D52069012808D110E020693A
:1022A000B0B1C6F80090FFF791FC074605E00AE1DF
:1022B000FFF78CFCC01B0228C4D828688007F7D51C
:1022C0002868616920F0F80040EAC10028600DE04C
:1022D000C6F80080FFF77AFC074604E0FFF776FCBB
:1022E000C01B022823D828688007F7D4207800076D
:1022F0002CD57948A169D9B1C0F80090FFF766FCE8
:10230000074604E0FFF762FCC01B02280FD8686A8A
:102310008007F7D571484FF4FA510068B0FBF1F02F
:10232000009000BF0098411E0091FAD20EE080E0BC
:10233000C0F80080FFF74AFC074604E0FFF746FCC0
:10234000C01B022875D8686A8007F7D42078400738
:1023500060D5E8690027C00008D4E86940F08050E3
:10236000E861E869012700F0805000905C4801684E
:10237000C90513D40168834641F480710160FFF7F9
:1023800025FC824606E000BFFFF720FCA0EB0A0018
:1023900064284ED8DBF80000C005F5D5E0680128B8
:1023A0000AD008B1052813D0286A20F0010028625D
:1023B000286A20F0040002E0286A40F00100286248
:1023C000E06841F2883B98B1FFF700FC82460BE0E1
:1023D000286A40F004002862EEE700BFFFF7F6FB32
:1023E000A0EB0A0159455AD8286A8007F6D50CE0B7
:1023F000FFF7ECFB824605E0FFF7E8FBA0EB0A01E4
:1024000059454CD8286A8007F6D41FB1E86920F0F6
:102410008050E861E06988B36968C1F381010229ED
:1024200044D00228C6F8608004D0FFF7CFFB0446F2
:1024300038E034E0FFF7CAFB074604E0FFF7C6FBCD
:10244000C01B02282BD828688001F7D4206AB0F579
:10245000803F05D16868A16820F4003008436860B7
:10246000D4E908010843696821F4741108436860DD
:10247000C6F86090FFF7AAFB044606E025E000BF1F
:10248000FFF7A4FB001B022809D828688001F7D5B4
:102490001BE000BFFFF79AFB001B022802D90320B4
:1024A000BDE8F88F28688001F4D40EE00128F7D049
:1024B0006868226A00F48031914204D1616A00F4B4
:1024C0007010884201D00120EAE70020E8E7000010
:1024D00000100240000042428004424234000020CA
:1024E000007000407047000038B50446006842683C
:1024F0008168C9434B0606D5CB0704D1D3435B069D
:1025000001D4216C05E08B0708D4D3431B0605D406
:10251000616C01B02046BDE8304008478B0601D50C
:102520004B0646D4D3439B0643D44B060AD494F8B7
:102530005130032B3ED0636D43F004036365C368E1
:1025400083680093890609D4616D41F001016165DA
:1025500081680091016821F040010160606D0028F0
:1025600027D02068416821F0E0014160012084F813
:102570005100900722D02068416821F0030141609A
:10258000104DE06C40B14563E06CFEF7FFFF18B101
:10259000606D40F040006065A06C002809D0456384
:1025A000A06CFEF7F3FF002803D0606D40F0400000
:1025B000606538BDC1688068009038BD2046FFF76F
:1025C00091FF38BD2D2D000870B5040009D0606A58
:1025D000002540B125616561A56294F8510040B1C4
:1025E0000CE0012070BD6068B0F5827FF4D0E56139
:1025F000F2E784F85050204600F040F8022084F8BA
:1026000051002068016821F040010160A088218903
:1026100000F4827001F404410843A18901F40061CF
:102620000843217C01F002010843217D01F00101F2
:102630000843218B01F400710843217F01F0380128
:10264000084394F8201001F080010843218D01F423
:102650000051084321680860A069042101EA104084
:10266000216848602068C16921F40061C161656525
:10267000012084F85100002070BD000070B586B0C4
:1026800000250646009501950295039500682649A8
:10269000884246D12549886940F48050886188691C
:1026A00000F480500490886940F0080088618869CF
:1026B0001F4C00F008000490282000906946204636
:1026C000FFF78AF910200090022001900320039068
:1026D00069462046FFF780F91648416841F0E061FD
:1026E00041F001014160154C1348C4E90005802008
:1026F000C4E9025020202561C4E905504FF4405040
:10270000E0612046FFF738F808B1FEF765FEF46493
:102710000022114623206662FFF756FC2320FFF7B4
:1027200045FC06B070BD00000030014000100240C2
:10273000000C0140000001401C0002408403002006
:102740002DE9F041044690F8510000263546012855
:1027500001D002265FE0A068042318B96768B7F5C6
:10276000827F16D094F85070012F1BD0012784F877
:102770005070D1B1CAB184F851306565A163A287A8
:10278000E28725646564A586E586B0F5004F0ED026
:1027900017E084F851302046BDE8F04113460A4660
:1027A00000F058B80220BDE8F081012633E020682F
:1027B000016821F0400101602068016821F4804136
:1027C0000160E16C1648C862E16C16488862E16CF1
:1027D00015480863E06C4563E38F2168A26B0C31F8
:1027E000E06CFEF7F7FF20B1606D40F0100060650F
:1027F000DBE720680168490603D4016841F0400125
:1028000001602068416841F0200141602068416812
:1028100041F00101416084F850503046C3E70000A8
:102820005F2D0008732D00083D2D000808B5074BEB
:102830000548A3F5847202F14801009001F190006F
:1028400001F088FB08BD00000C000020E80100201A
:10285000704700002DE9F041044690F85000002632
:1028600001280CD0012084F8500094F85100002574
:10287000676801280CD0B7F5827F07D102E00220FB
:10288000BDE8F081A7680FB9042801D002265DE0F9
:1028900049B342B33BB394F85100042802D0052059
:1028A00084F8510065652163A386E386A263A3874C
:1028B000E3872564656494F85100042815D0E16C21
:1028C0002448C8622448E16C8862E16C23480863AC
:1028D000E06C4563E38F2168A26B0C31E06CFEF77E
:1028E00079FFE0B906E0012630E0E16C1C48C862DF
:1028F0001C48E8E72068416841F001014160A06C94
:10290000C562A06C8562A06C0563A06C4563E38E14
:102910002268216B0C32A06CFEF75CFF20B1606D69
:1029200040F010006065DEE720680168490603D4C6
:10293000016841F0400101602068416841F02001D8
:1029400041602068416841F00201416084F85050C4
:10295000304695E7692D0008DD2D00083D2D000863
:102960005F2D0008732D00087047704710B5401E9A
:10297000B0F1807F01D3012010BD4FF0E0246061F1
:102980000F21601700F03AFB0020A06107202061B2
:10299000002010BDFEE701684A69D24352050FD4FA
:1029A0006FF480624A61002140F8301F2022427398
:1029B0008173026942F004020261017301207047D1
:1029C00000207047F8B50446C06A1E460D461746FB
:1029D000082807D0012805D010F5803F02D0206BD1
:1029E000122804D12068016841F480710160134607
:1029F00000224FF001112046009600F05DF840B132
:102A000020680068C00502D54FF4007020640320E0
:102A1000F8BD2069B0F5804F0ED00620216800EA8D
:102A2000D51040F0F000086133463A460B49204685
:102A300000F08AF878B902E005F0FE0000E0E8B2A4
:102A400021680861054933463A46891F204600F04F
:102A50007BF80028DCD00120F8BD00000800010050
:102A600070B516460D4604461EE02046FFF793FF5C
:102A700008B1012070BD681C16D0FFF7A7F8801BB5
:102A8000A84200D885B920684069C04340070BD5EB
:102A9000002044F8300F20216173A073216941F0B8
:102AA000200121612073E4E720684069C0434007AA
:102AB000DBD4002070BD00002DE9F0479846174692
:102AC0000D460446C1F30746DDF820902AE000BF1A
:102AD000B8F1FF3F26D0FFF779F8A0EB0901414597
:102AE00002D8B8F1000F1DD12068012E16D08069E0
:102AF00025EA00000004000C12D00020B84211D1D9
:102B0000002044F8300F20216173A073216941F047
:102B10002001216120730120BDE8F0874069E7E7CB
:102B20000120EBE72068012E0AD0806925EA000029
:102B30000004000C06D00020B842C9D00020EBE70A
:102B40004069F3E70120F7E72DE9F047984616467C
:102B50000D4604464FF000094FF0200AC1F3074725
:102B600023E020684069C043400515D4206801680F
:102B700041F40071016021686FF480604861C4F81D
:102B8000309084F83DA084F83E90216C41F004011F
:102B9000216484F83C9021E0701C06D0FFF716F801
:102BA000A0EB0800B04203D816B1012F1FD021E0DE
:102BB0002068012F15D0806925EA00000004000C70
:102BC00018D000BF44F8309F84F80DA084F80E9010
:102BD000216941F02001216184F80C900120BDE8B9
:102BE000F087406925EA00000004000CEAD1206863
:102BF000406901E02068806925EA00000004000CBB
:102C0000AFD1ECE770B516460D4604461EE02046EF
:102C1000FFF7C1FE08B1012070BD681C16D0FEF799
:102C2000D5FF801BA84200D885B920684069C04301
:102C300000060BD5002044F8300F20216173A073EB
:102C4000216941F0200121612073E4E72068406997
:102C5000C0430006DBD4002070BD000070B586B014
:102C600000241C480094019402940394816941F06B
:102C700020018161816901F020010491816941F0A5
:102C800004018161816901F004010491816941F0CD
:102C9000080181618069104E00F008004FF4004582
:102CA0000490002229463046FEF78BFF0F20CDE925
:102CB00000040124694630460294FEF78DFE02208E
:102CC000CDE90240CDE9005469463046FEF784FE66
:102CD00006B070BD00100240000801400D4810B55C
:102CE0000B490160002141608160C1604FF40072B6
:102CF0000161C0E905120162416281620A21C1627B
:102D0000FFF762FC002801D072B6FEE710BD00009C
:102D1000003001402C030020FEE7FEE77047000072
:102D20000148FFF7E1BB00002C03002010B5406A0A
:102D30000021C187C186FFF7D5FB10BD10B5406AE1
:102D400001684A6822F003024A60416D41F01001B7
:102D50004165012180F85110FFF7C4FB10BD10B58B
:102D6000406AFFF775FD10BD10B5406AFFF7FDFD25
:102D700010BD70B50546446AFEF728FF0246286874
:102D80000068800626D42068416821F02001416057
:102D9000A06818B96068B0F5827F16D020684168D5
:102DA00021F0010141606421204600F044F808B19F
:102DB000202060650020E087012084F85100606DCC
:102DC00040B12046FFF78EFB70BD2068416821F0BE
:102DD0000301E7E72046FFF729FD70BD70B5054602
:102DE000446AFEF7F3FE02462868006880061ED497
:102DF0002068416821F0200141606421204600F0F4
:102E000048F818B1606D40F02000606520684168A6
:102E100021F0030141600020E086E087012084F872
:102E20005100606D18B12046FFF75CFB70BD204675
:102E3000FFF79AFD70BDF8B5044640684FF4827301
:102E4000984217D1A0684FF48065B0F5004F01D0CB
:102E5000A8420FD12068066826F040060660606828
:102E6000984207D1A068A84204D100920B460022E4
:102E7000012103E000920B4600228021204600F051
:102E800019F8002804D0606D40F020006065032030
:102E9000F8BD38B50B46009204460022802100F0B0
:102EA00009F8002804D0606D40F020006065032020
:102EB00038BD00002DE9F8431E4691468846044679
:102EC000089DFEF783FE401B351AFEF77FFE07467E
:102ED00025480068C0F3CB30684338E0701C37D019
:102EE000FEF774FEC01BA84203D215B1009860B370
:102EF0002CE02068416821F0E00141606068B0F595
:102F0000827F0BD1A068B0F5004F02D0B0F5806F82
:102F100004D12068016821F040010160A06AB0F589
:102F2000005F09D12068016821F400510160206828
:102F3000016841F400510160012084F85100002033
:102F400084F850000320BDE8F8830025401E00905F
:102F50002068816838EA010004D000214945BDD1CC
:102F60000020F0E70121F9E7340000207047FEF768
:102F7000C5BF30B58FB028216846FDF722FA14216D
:102F80000AA8FDF71EFA01210804CDE9001000246B
:102F9000029402250491CDE907504FF4E010099006
:102FA0006846FFF70FF908B172B6FEE70F20CDE9CA
:102FB0000A054FF4A060CDE90C4002210AA80E9446
:102FC000FFF734F8002801D072B6FEE70FB030BD2D
:102FD0007047FEE7490050EAC12018BF04204A0D9F
:102FE00018BF40F0010040F2FF72B2EB515F08BF22
:102FF00040F00200012808BF052070470907090EAC
:10300000002804DB00F1E02080F80014704700F095
:103010000F0000F1E02080F8141D704730380A28B6
:1030200001D201207047002070470000F0B5FB4F2F
:10303000E5B002213846FEF7BFFD0124F84D002619
:1030400078B101213846FEF7B7FD40B30421384678
:10305000FEF7B2FDB8B308213846FEF7ADFD98B3D0
:1030600054E06868012804D0022809D0042814D14B
:103070000DE0A868401CA86002280EDDAC600CE0E2
:10308000E868401CE860062807DDEC6005E0286978
:10309000401C2861062800DD2C61FA200EE000F0BB
:1030A00059FE6869012810D0002108466C6100F0C3
:1030B00089FEDCA000F0CEFE40F2A320FEF7C2FBAA
:1030C00000F048FE22E007E00DE0002108466E61B6
:1030D00000F078FED6A0EDE76868401C686005281F
:1030E000DBDD6C60D9E701F0CFFB00F033FE00219F
:1030F000084600F067FED0A000F0ACFE4FF4FA7076
:10310000FEF7A0FB00F026FE00F006FF6868CD4C3D
:1031100006282FD2DFE800F02E03FDFCFBFAC94E93
:10312000A868903E012827D0022823D168694FF073
:103130000001002808467DD000F044FEC2A000F047
:1031400089FED6E90823C1A10AA8FDF763F80AA8F9
:1031500000F080FE0021012000F034FEBDA000F050
:1031600079FED6E90A23B9A10EA8FDF753F80EA8F7
:1031700000F070FE65B0F0BD68694FF000010028F6
:10318000084641D000F01EFEB3A000F063FED6E971
:103190000023AEA10AA8FDF73DF80AA800F05AFEE8
:1031A0000021012000F00EFEACA000F053FED6E995
:1031B0000423A6A10EA8FDF72DF80EA800F04AFEE4
:1031C0000821002000F0FEFDA5A000F043FED6E996
:1031D00002239EA112A8FDF71DF812A800F03AFEE6
:1031E0000821012000F0EEFD9EA000F033FED6E99C
:1031F000062396A116A8FDF70DF816A800F02AFEE2
:10320000A869401CA861B5E700F0DCFD92A000F0C1
:1032100021FE94F8240094F8271040EA016394F802
:10322000260094F82510000440EA0120034394F896
:10323000230000E09DE0020694F8220043EAE273D6
:103240000004024343EAE07394F821007FA10002E6
:10325000024343EAE07394F82000083402430AA8CA
:10326000FCF7D8FF0AA800F0F5FD0021012000F0CE
:10327000A9FD7AA000F0EEFD2079E17940EA016332
:10328000A0796179000440EA01200343E0786FA14E
:103290000206A07843EAE2730004024343EAE073C3
:1032A00060780002024343EAE073207802430EA8EC
:1032B000FCF7B0FF0EA800F0CDFD0821002000F0C3
:1032C00081FD67A000F0C6FD94F8240094F8271053
:1032D00040EA016394F8260094F82510000440EABF
:1032E0000120034394F82300020694F8220043EAE5
:1032F000E2730004024343EAE07394F82100000201
:10330000024343EAE07394F8200003E0F5E31BE294
:10331000FCE177E002434DA112A8FCF77BFF12A865
:1033200000F098FD0821012000F04CFD4DA000F0B8
:1033300091FD207BE17B40EA0163A07B617B00047F
:1033400040EA01200343E07A40A10206A07A43EA62
:10335000E2730004024343EAE073607A000202432E
:1033600043EAE073207A024316A8FCF753FF16A83D
:10337000FEE600F027FD34A000F06CFD207FE17F29
:1033800040EA0163A07F617F000440EA012003431B
:10339000E07E2EA10206A07E43EAE273000402430F
:1033A00043EAE073607E0002024343EAE073207E5A
:1033B00002430AA8FCF72EFF0AA800F04BFD0021EB
:1033C000012000F0FFFC23A000F044FD2079E1790A
:1033D00040EA0163A0796179000440EA01200343D7
:1033E000E0781AA10206A07843EAE27300040243DF
:1033F00043EAE07360780002024343EAE073207816
:103400000243B1E6E868184C0728BFF4FCAEDFE8D9
:1034100000F0042D629AD2FEFD00ABE600080140E8
:103420000C0000205245414C54494D45000000001D
:10343000454550524F4D0000446174612053617600
:10344000656400004802002046463A00252E316699
:103450000000000042423A00464C3A00424C3A001A
:1034600046523A0042523A00280100200021084604
:1034700000F0A8FCFEA000F0EDFC0821002000F008
:10348000A1FCFCA000F0E6FCAFF24001D4E902236D
:103490000AA8FCF7BFFE0AA800F0DCFC002101200E
:1034A00000F090FCF4A000F0D5FCAFF26001D4E98C
:1034B0000E230FA8FCF7AEFE0FA800F0CBFC0821EE
:1034C000012000F07FFCEDA000F0C4FCAFF284010D
:1034D000D4E91A23F4E30021084600F073FCE8A0C5
:1034E00000F0B8FC0821002000F06CFCE1A000F026
:1034F000B1FCAFF2A801D4E9062319A8FCF78AFEB3
:1035000019A800F0A7FC0021012000F05BFCDAA064
:1035100000F0A0FCAFF2CC01D4E912231EA8FCF706
:1035200079FE1EA800F096FC0821012000F04AFC5C
:10353000D2A000F08FFCAFF2EC01D4E91E2323A847
:10354000FCF768FED1E10021084600F03BFCCDA06D
:1035500000F080FC0821002000F034FCC5A000F041
:1035600079FCAFF21811F4E90A2328A8FCF752FEFF
:1035700028A800F06FFC0021012000F023FCBEA071
:1035800000F068FCAFF23C11D4E90C232DA8FCF745
:1035900041FE2DA800F05EFC0821012000F012FC85
:1035A000B6A000F057FCAFF25C11D4E9182332A8A2
:1035B000FCF730FEF3E10021084600F003FCB2A066
:1035C00000F048FC0821002000F0FCFBA9A000F05E
:1035D00041FCAFF28811F4E9082337A8FCF71AFE82
:1035E00037A800F037FC0021012000F0EBFBA2A07F
:1035F00000F030FCAFF2AC11D4E90C233CA8FCF78E
:1036000009FE3CA800F026FC082101E046E00DE0A0
:10361000012000F0D7FB99A000F01CFCAFF2D41100
:10362000D4E9182341A8FCF7F5FD0EE20021084675
:1036300000F0C8FB95A000F00DFC0821002000F070
:10364000C1FB8CA000F006FCAFF20021D4E90423FA
:1036500046A8FCF7DFFD46A800F0FCFB0021012096
:1036600000F0B0FB84A000F0F5FBAFF22021D4E91C
:1036700010234BA8FCF7CEFD4BA800F0EBFB082174
:10368000012000F09FFB7DA000F0E4FBAFF244219D
:10369000D4E91C2350A8FCF7BDFD2CE2002108460C
:1036A00000F090FB7AA000F0D5FB0821002000F08C
:1036B00089FB70A000F0CEFBAFF27021D4E90023AB
:1036C00055A8FCF7A7FD55A800F0C4FB0021012078
:1036D00000F078FB68A000F0BDFBAFF29021D4E9C8
:1036E0000C235AA8FCF796FD5AA800F0B3FB08215A
:1036F000012000F067FB61A000F0ACFBAFF2B42149
:10370000D4E918235FA8FCF785FD4BE200210846A9
:1037100000F058FB5FA000F09DFB604C60A1684684
:103720002278FCF777FD684600F094FB0021012029
:1037300000F048FB5BA000F08DFB627858A105A863
:10374000FCF768FD05A813E52869584C0728BFF465
:103750005AADDFE800F0040552CCFCFBFA0009E5A5
:103760000021084600F02EFB41A000F073FB082169
:10377000002000F027FB4EA000F06CFB2078E178E1
:1037800040EA0162A0786178000440EA0120024327
:1037900048A10AA8FCF73EFD0AA800F05BFB002147
:1037A000012000F00FFB44A000F054FB2079E179E8
:1037B00040EA0162A0796179000440EA01200243F5
:1037C0003CA10FA8FCF726FD0FA800F043FB082141
:1037D000012000F0F7FA39A000F03CFB207AE17AF2
:1037E00040EA0162A07A617A000440EA01200243C3
:1037F00030A114A8FCF70EFD65E20021084600F098
:10380000E1FA1FA000F026FB0821002000F0DAFA00
:1038100027A000F01FFB207BE17B40EA0162A07B38
:10382000617B000440EA0120024322A119A8FCF7B1
:10383000F1FC19A800F00EFB0021012000F0C2FAF3
:103840001DA000F007FB207CE17C40EA0162A07C27
:10385000617C000440EA0120024316A11EA8FCF787
:10386000D9FC1EA800F0F6FA0821012028E000008B
:1038700046520000583A0000593A00005A3A0000F7
:103880004D52000042520000424C00004D4C0000DE
:10389000464C0000526F6F6D3A0000000C00002093
:1038A00025750000537465703A0000000002002086
:1038B000433A000025640000463A0000543A0000F4
:1038C00000F080FAAFF20C0000F0C4FA207DE17D38
:1038D00040EA0162A07D617D000440EA01200243CC
:1038E000AFF2300123A8FCF795FC23A840E40021A7
:1038F000084600F067FAAFF2740000F0ABFA082156
:10390000002000F05FFAAFF2580000F0A3FA14F8BC
:10391000180FE17840EA0162A0786178000440EA7B
:1039200001200243AFF2740128A8FCF773FC28A819
:1039300000F090FA0021012000F044FAAFF2880074
:1039400000F088FA2079E17902E0D7E07FE028E012
:1039500040EA0162A0796179000440EA0120024353
:10396000AFF2B0012DA8FCF755FC2DA800F072FABB
:103970000821012000F026FAAFF2C00000F06AFA38
:10398000207AE17A40EA0162A07A617A000440EA92
:1039900001200243AFF2E40132A8FCF73BFC32A85D
:1039A000E6E40021084600F00DFAAFF2241000F022
:1039B00051FA0821002000F005FAAFF20C1000F0D7
:1039C00049FA14F8240FE17840EA0162A07861789E
:1039D000000440EA01200243AFF2281137A8FCF7A7
:1039E00019FC37A800F036FA0021012000F0EAF9AE
:1039F000AFF23C1000F02EFA2079E17940EA016242
:103A0000A0796179000440EA01200243AFF25C1121
:103A10003CA8FCF7FFFB3CA800F01CFA08210120A1
:103A200000F0D0F9AFF26C1000F014FA207AE17ACD
:103A300040EA0162A07A617A000440EA0120024370
:103A4000AFF2901141A8FCF7E5FB41A890E40021FA
:103A5000084600F0B7F9AFF2CC1000F0FBF90821EE
:103A6000002000F0AFF9AFF2B81000F0F3F914F84D
:103A7000300FE17840EA0162A0786178000440EA02
:103A800001200243AFF2D41146A8FCF7C3FB46A8BD
:103A900000F0E0F90021012000F094F9AFF2E81005
:103AA00000F0D8F92079E17940EA0162A0796179E2
:103AB000000440EA01200243AFF208214BA8FCF7C2
:103AC000A9FB4BA800F0C6F90821012000F07AF903
:103AD000AFF2182000F0BEF9207AE17A40EA0162E4
:103AE000A07A617A000440EA01200243AFF23C214F
:103AF00050A8FCF78FFB50A83AE455E00021084697
:103B000000F060F9AFF2782000F0A4F9082100205D
:103B100000F058F9AFF2682000F09CF914F83C0F5F
:103B2000E17840EA0162A0786178000440EA01206F
:103B30000243AFF2802155A8FCF76CFB55A800F0BA
:103B400089F90021012000F03DF9AFF2942000F046
:103B500081F92079E17940EA0162A0796179000474
:103B600040EA01200243AFF2B4215AA8FCF752FB0D
:103B70005AA800F06FF90821012000F023F9AFF2F4
:103B8000C42000F067F9207AE17A40EA0162A07A65
:103B9000617A000440EA01200243AFF2E8215FA805
:103BA000FCF738FB5FA8CEE568694FF000010128FB
:103BB00008467DD000F006F95EA000F04BF9082120
:103BC000002000F0FFF85DA000F044F994F8340004
:103BD00094F8371040EA016394F8360094F83510F1
:103BE000000440EA0120034394F83300020694F8ED
:103BF000320043EAE2730004024343EAE07394F8BC
:103C000031000002024343EAE07314F8300F02432C
:103C1000AFF2C8710AA8FCF7FDFA0AA800F01AF979
:103C20000021012000F0CEF845A000F013F9207B20
:103C3000E17B40EA0163A07B617B000440EA012054
:103C40000343E07A0206A07A43EAE27300040243E7
:103C500043EAE073607A0002024343EAE073207AA9
:103C60000243AFF618010FA8FCF7D4FA0FA800F032
:103C7000F1F80821012000F0A5F8AFF2044000F0AF
:103C8000E9F8207DE17D40EA0163A07D617D0004CB
:103C900040EA01200343E07C0206A07C43EAE27391
:103CA0000004024343EAE073607C0002024301E047
:103CB0000BE005E043EAE073207C0243AFF67401B9
:103CC00014A8FCF7A7FA14A83DE500F07BF819A0AA
:103CD00000F0C0F80821002000F074F817A000F0F0
:103CE000B9F8184CAFF69C01D4E900230AA8FCF7F8
:103CF00091FA0AA800F0AEF80021012000F062F865
:103D00000FA000F0A7F8AFF6BC01D4E902230FA87A
:103D1000FCF780FA0FA800F09DF80821012000F0C0
:103D200051F8AFF2AC4000F095F8AFF6E001D4E9FD
:103D30000423C5E74759524F00000000523A0000E3
:103D4000503A0000E8010020014908607047000077
:103D50000800002010B5802000F040F8002420204A
:103D600000F05AF8641C462CF9DB10BD144910B55C
:103D700008603220FDF766FD202000F02FF80A20B1
:103D8000FDF760FD282000F029F80120FDF75AFD1D
:103D9000082000F023F80120FDF754FD012000F079
:103DA0001DF80220FDF74EFD062000F017F8012057
:103DB000FDF748FDBDE810400C2000F00FB80000F2
:103DC0000000002010B1012805D102E041F080017F
:103DD00001E041F0C001C8B2AFF3008008B500F0C7
:103DE000F0020C4942F00C0342F008020B704A70DA
:103DF000000140F00C028A7040F00800C870642096
:103E00000A460090101F04234E210068FDF7A8FF0A
:103E100008BD00000400002008B500F0F0020C49C5
:103E200042F00D0342F009020B704A70000140F0AD
:103E30000D028A7040F00900C87064200A460090A4
:103E4000101F04234E210068FDF78AFF08BD000003
:103E50000400002010B5044602E0641CFFF7DCFFFC
:103E600020780028F9D110BD08B5FEF74FF8FFF70C
:103E700080F8FEF7F3FE2248416941F001014161FB
:103E80004069002200F00100009011460C20FEF76E
:103E90009BF80C20FEF78AF8FEF720FF1A48194914
:103EA0004FF4804201601949416000218160C0E9FE
:103EB000031241618161C1610162FDF78DFE08B1AC
:103EC00072B6FEE700224FF400411148FDF779FE7B
:103ED0000D48FFF74BFF0C485430FFF735FF0A4BF6
:103EE0000C48F03BA3F5847202F14801009001F107
:103EF000900000F02FF800BFFFF798F8FCE70000F3
:103F00000010024000540040D8020020A0860100AA
:103F1000000801400C00002010B548220549064861
:103F200000F00EF803494822BDE81040483103482C
:103F300000F006B80002002000FC010800F40108AF
:103F400010B5002302E0C45CCC545B1C9342FADB46
:103F500010BD00002DE9F0410D461446FF491F46F3
:103F600006469122FE48DDF818800068FEF7E8FB5F
:103F70000246FA4801780F2908D01F297ED02F2940
:103F80007DD03F297CD04F297BD02DE34179037A26
:103F9000847941EA0361C3791B0443EA042319438A
:103FA0000379C4781B0641EAE3712404234341EA00
:103FB000E47184782402234341EAE4714478234382
:103FC000C6E90031417B037C847B41EA0361C37B0A
:103FD0001B0443EA04231943037BC47A1B0641EA0A
:103FE000E3712404234341EAE471847A24022343E5
:103FF00041EAE471447A2343C6E90231417D037EFC
:10400000847D41EA0361C37D1B0443EA0423194311
:10401000037DC47C1B0641EAE3712404234341EA87
:10402000E471847C2402234341EAE471447C234309
:10403000C6E90431417F90F82030847F41EA036172
:10404000C37F1B0443EA04231943037FC47E1B067A
:10405000250441EAE371847E2B43240241EAE571A1
:10406000234341EAE471447E2343C6E9063190F8D4
:10407000251090F8283041EA036103E045E0B4E2FE
:10408000BAE2A9E390F8273090F826401B0443EAEF
:104090000423194390F8243090F823401B0641EA8A
:1040A000E3712404234341EAE47190F8224024029E
:1040B000234341EAE47190F821402343C6E90831E3
:1040C00090F82D1090F8303090F82E4041EA0363BC
:1040D00090F82F10090441EA04210B4390F82C10AA
:1040E00090F82B40090643EAE1732404214343EA94
:1040F000E47390F82A4090F829002402214343EA0F
:10410000E4730143C6E90A13BAE34179037A847977
:1041100041EA0361C3791B0443EA04231943037989
:10412000C4781B0641EAE3712404234341EAE471A5
:1041300084782402234341EAE47144782343C5E9A7
:104140000C31417B037C847B41EA0361C37B1B040C
:1041500043EA04231943037BC47A1B0641EAE37153
:104160002404234341EAE471847A2402234341EA8C
:10417000E471447A2343C5E90E31417D037E847D99
:1041800041EA0361C37D1B0443EA04231943037D11
:10419000C47C1B0641EAE3712404234341EAE47131
:1041A000847C2402234341EAE471447C2343C5E92F
:1041B0001031417F90F82030847F41EA0361C37F52
:1041C0001B0443EA04231943037FC47E1B0641EA10
:1041D000E3712404234341EAE471847E24022343EF
:1041E00041EAE471447E2343C5E9123190F8251079
:1041F00090F8283090F8264041EA036190F8273083
:104200001B0443EA0423194390F8243090F8234018
:104210001B0641EAE3712404234341EAE47190F868
:1042200022402402234341EAE47190F821402343D1
:10423000C5E9143190F82D1090F8303090F82E40E8
:1042400041EA036190F82F301B0443EA0423194329
:1042500090F82C3090F82B401B0641EAE3712404BF
:10426000234341EAE47190F82A402402234341EABF
:10427000E47190F829402343C5E9163190F83510D0
:1042800090F8383090F8364041EA036190F83730C2
:104290001B0443EA0423194390F8343090F8334068
:1042A0001B0641EAE3712404234341EAE47190F8D8
:1042B00032402402234341EAE47190F83140234321
:1042C000C5E9003190F83D1090F8403090F83E403C
:1042D00041EA036190F83F301B0443EA0423194389
:1042E00090F83C3090F83B401B0641EAE37124040F
:1042F000234341EAE47190F83A402402234341EA1F
:10430000E47190F839402343C5E9023190F8451033
:1043100090F8483090F8464041EA036190F8473001
:104320001B0443EA0423194390F8443090F84340B7
:104330001B0641EAE3712404234341EAE47190F847
:1043400042402402234341EAE47190F84140234370
:10435000C5E9043190F84D1004E000004800002049
:104360000800002090F8503090F84E4041EA036178
:1043700090F84F301B0443EA0423194390F84C3063
:1043800090F84B401B0641EAE3712404234341EAC1
:10439000E47190F84A402402234341EAE47190F822
:1043A00049402343C5E9063190F8551090F858303C
:1043B00090F8564041EA036190F857301B0443EAF5
:1043C0000423194390F8543090F853401B0641EAF7
:1043D000E3712404234341EAE47190F8524024023B
:1043E000234341EAE47190F851402343C5E9083181
:1043F00090F85D1090F8603090F85E4041EA0361FB
:1044000090F85F301B0443EA0423194390F85C30B2
:1044100090F85B401B0641EAE3712404234341EA20
:10442000E47190F85A402402234341EAE47190F881
:1044300059402343C5E90A3190F8651090F8683077
:1044400090F8664041EA036390F86710090441EA76
:1044500004210B4390F86410090690F8634043EA86
:10446000E1732404214343EAE47390F86240240298
:10447000214343EAE47390F861402143C5E91813EE
:1044800090F86D1090F8703090F86E4041EA03613A
:1044900090F86F301B0443EA0423194390F86C3002
:1044A00090F86B401B0641EAE3712404234341EA80
:1044B000E47190F86A402402234341EAE47190F8E1
:1044C00069402343C5E91A3190F8751090F87830A7
:1044D00090F8764041EA036190F877301B0443EA94
:1044E0000423194390F8743090F873401B0641EA96
:1044F000E3712404234341EAE47190F872402402FA
:10450000234341EAE47190F871402343C5E91C312B
:1045100090F87D1090F8803090F87E4041EA036179
:1045200090F87F301B0443EA0423194390F87C3051
:1045300090F87B401B0641EAE3712404234341EADF
:10454000E47190F87A402402234341EAE47190F840
:1045500079402343C5E91E3190F8851090F88830E2
:1045600090F8864041EA036390F88710090441EA15
:1045700004210B4390F8841090F88340090643EA25
:10458000E1732404214343EAE47390F88240240257
:10459000214343EAE47390F881402143C5E92013A5
:1045A00090F88D1090F8903090F88E4041EA0361B9
:1045B00090F88F301B0443EA0423194390F88C30A1
:1045C00090F88B401B0641EAE3712404234341EA3F
:1045D000E47190F88A4090F889002402234341EA6C
:1045E000E4710343C5E922314AE1437888F8003099
:1045F000817888F8011043E141780379857841EAB0
:104600000361C3781B0443EA052319432160417900
:10461000037A857941EA0361C3791B0443EA0523E0
:1046200019436160417A037B857A41EA0361C37A69
:104630001B0443EA05231943A160417B037C857B6E
:1046400041EA0361C37B1B0443EA05231943E1608C
:10465000417C037D857C41EA0361C37C1B0443EA02
:10466000052319432161417D037E857D41EA036174
:10467000C37D1B0443EA052319436161417E037F27
:10468000857E41EA0361C37E1B0443EA0523194387
:10469000A161417F90F82030857F41EA0361C37FAB
:1046A0001B0443EA05231943E16190F8211090F8B7
:1046B000243041EA036190F8233090F822501B0423
:1046C00043EA05231943216290F8251090F8283019
:1046D00090F8265041EA036190F827301B0443EA22
:1046E00005231943616290F8291090F82C3090F856
:1046F0002A5041EA036190F82B301B0443EA05235A
:104700001943A16290F82D1090F8303090F82E5097
:1047100041EA036190F82F301B0443EA0523194353
:10472000E16290F8311090F8343090F8325041EA5C
:10473000036190F833301B0443EA052319432163D6
:1047400090F8351090F8383090F8365041EA03610F
:1047500090F837301B0443EA05231943616390F84E
:10476000391090F83C3090F83A5041EA036190F8E3
:104770003B301B0443EA05231943A16390F83D1025
:1047800090F8403090F83E5041EA036190F83F3095
:104790001B0443EA05231943E16390F8411090F8A4
:1047A000443090F8425041EA036190F843301B04D2
:1047B00043EA05231943216490F8451090F84830E6
:1047C00041EA036190F8473090F846001B0443EA41
:1047D00000200143616453E04179037A847941EA1E
:1047E0000361C3791B0443EA042319430379C478A2
:1047F0001B0641EAE3712404234341EAE47184780F
:104800002402234341EAE47144782343C7E9003199
:10481000417B037C847B41EA0361C37B1B0443EA45
:1048200004231943037BC47A1B0641EAE371240481
:10483000234341EAE471847A2402234341EAE47188
:10484000447A2343C7E90231417D037E847D41EAF6
:104850000361C37D1B0443EA04231943037DC47C25
:104860001B0641EAE3712404234341EAE471847C9A
:10487000407C2402234341EAE4710343C7E9043145
:104880001046BDE8F081000000B52E4893B00168E5
:1048900000914168019181680291C16803910169A9
:1048A00004914169059181690691C1690791016A85
:1048B0000891416A0991816A0A91C16A0B91016B61
:1048C0000C91416B0D91816B0E91C16B0F91016C3D
:1048D00010911C49406CD831119001F1D8008A6ABE
:1048E0000260CA6A42600A6982604A69C2608A6973
:1048F0000261CA6942610A6A82614A6AC2610A68DF
:1049000002624A6842628A688262C968C162A0F132
:10491000A8018A680263CA6842630A6882634A68B7
:10492000C2630A6902644969416401461222064869
:10493000FCF7DEFD122269460448FCF7D9FD13B0EE
:1049400000BD0000E000002000F4010800FC0108A8
:1049500010B500290AD00878002807D00548784407
:10496000FCF70EF9002801D0002010BD0248784461
:1049700010BD000002010000FA000000FBF77DBE40
:10498000010202030405060708090A0B0C0D0E0FAD
:1049900010100000000000000000010203040607E0
:1049A00008090000000001020304000002400000AA
:1049B000000000A00000000005400000000000C84A
:1049C000000000000C4000000000409C00000000BF
:1049D000194000000020BCBE000000003440000070
:1049E000BFC91B8E00000004B5400000504BCFD063
:1049F0006607E2CF010000006C4100003E8251AA30
:104A0000DFEEA73401000000D9420000DCB5A0E2CF
:104A10003A301F97FFFFFFFFB4450000FD25A0C8F7
:104A2000E9A3C14FFFFFFFFFFF3F00000000008030
:104A300000000000FF3F00000000008000000000B8
:104A40007C4A00080000002038000000280100080F
:104A5000B44A000838000020100A00004401000891
:104A60001C00000043000000F8FFFFFF0C000000E6
:104A70000E0000000F0000002E00000000000000EB
:104A80000000000000000000000000000100000025
:104A90000100000001000000010000000100000012
:104AA00000000000010000001000000000000000F5
:044AB0000024F400EA
:04000005080000ED02
:00000001FF
